:100000000C942A000C9437210C946A210C949D21A5
:100010000C9447000C9447000C9447000C94470044
:100020000C9447000C9447000C9447000C94470034
:100030000C9447000C9447000C9447000C94470024
:100040000C9447000C9447000C9447000C94470014
:100050000C94470011241FBECFE5D8E0DEBFCDBF12
:1000600011E0A0E6B0E0E0E9FFE402C005900D92E7
:10007000AC37B107D9F711E0ACE7B1E001C01D9290
:10008000A338B107E1F70E94C4220C94C6270C9450
:100090000000EF92FF920F931F937B018C0120E0F1
:1000A00030E040E05FE40E94490388238CF0C801FF
:1000B000B70120E030E040E05FE40E94C1010E940F
:1000C000A9039B01AC01205030404040504806C07D
:1000D000C801B7010E94A9039B01AC01B901CA0183
:1000E0001F910F91FF90EF900895A0E0B0E0EBE733
:1000F000F0E00C948F27DC012B01FA019C919230E7
:1001000008F439C1EB018881823008F433C194309E
:1001100069F4843009F02FC111969C91119789815F
:10012000981709F428C1ACECB0E025C1843009F47B
:1001300021C18230A9F4923009F01DC19A01AD01AC
:1001400088E0EA010990AE01E90109929E0181501F
:10015000C1F7E201898111969C918923818308C1AD
:10016000923009F407C112962D903C901397EB0141
:100170008A819B811496AD90BD90CD90DC901797AD
:10018000EC80FD800E811F819101281B390BB90184
:1001900037FF04C066277727621B730B6032710537
:1001A0000CF061C0121613066CF537014801062EDB
:1001B00004C096948794779467940A94D2F721E0C8
:1001C00030E040E050E004C0220F331F441F551FB1
:1001D0006A95D2F721503040404050402E213F21B7
:1001E00040235123211531054105510521F021E01E
:1001F00030E040E050E079018A01E628F72808293C
:1002000019293CC0232BD1F1260E371E350146019A
:10021000062E04C096948794779467940A94D2F734
:1002200021E030E040E050E004C0220F331F441FC3
:10023000551F6A95D2F721503040404050402A2146
:100240003B214C215D21211531054105510521F04E
:1002500021E030E040E050E059016A01A628B728CB
:10026000C828D9280BC0821593052CF01C01AA249C
:10027000BB24650103C0EE24FF24870111969C91E5
:10028000D20111968C91981709F445C0992339F041
:10029000A80197012A193B094C095D0906C0A6016E
:1002A00095012E193F09400B510B57FD08C01182D3
:1002B0003382228224833583468357831DC081E0A5
:1002C00081833382228288279927DC01821B930B4A
:1002D000A40BB50B84839583A683B7830DC0220F2F
:1002E000331F441F551F24833583468357838281E0
:1002F000938101979383828324813581468157813D
:10030000DA01C9010197A109B1098F5F9F4FAF4F72
:10031000BF4328F30BC0918333822282EA0CFB1C7B
:100320000C1D1D1DE482F5820683178383E0808304
:10033000248135814681578157FF1AC0C901AA27F8
:1003400097FDA095BA2F81709070A070B0705695EF
:10035000479537952795822B932BA42BB52B848318
:100360009583A683B7838281938101969383828349
:10037000DF0101C0D201CD01CDB7DEB7E2E10C94BF
:10038000AB27A0E2B0E0E7ECF1E00C949B27698397
:100390007A838B839C832D833E834F835887E9E048
:1003A000EE2EF12CEC0EFD1ECE010196B7010E943F
:1003B000D2048E010F5E1F4FCE010596B8010E9438
:1003C000D2048A8991E089278A8BC701B801AE01DE
:1003D000475E5F4F0E9475000E94FD03A096E6E015
:1003E0000C94B727A0E2B0E0E8EFF1E00C949B2773
:1003F00069837A838B839C832D833E834F835887C5
:10040000F9E0EF2EF12CEC0EFD1ECE010196B701A6
:100410000E94D2048E010F5E1F4FCE010596B801D7
:100420000E94D204C701B801AE01475E5F4F0E942F
:1004300075000E94FD03A096E6E00C94B727A0E2A9
:10044000B0E0E5E2F2E00C948F2769837A838B8336
:100450009C832D833E834F835887CE010196BE0136
:10046000675F7F4F0E94D204CE010596BE016F5E8A
:100470007F4F0E94D2049985923088F0898982301A
:10048000C8F0943019F4823051F404C0843029F457
:10049000923081F48CEC90E0C6C0923049F420E0B8
:1004A0009A858A89981321E02A87CE010996BBC0D4
:1004B000823049F420E09A858A89981321E02A8BBA
:1004C000CE014196B0C02D843E844F8458886D88FB
:1004D0007E888F88988CEE24FF248701AA24BB2471
:1004E000650140E050E060E070E0E0E0F0E0C10174
:1004F00081709070892BE9F0E60CF71C081D191D1E
:100500009A01AB012A0D3B1D4C1D5D1D80E090E062
:10051000A0E0B0E0E614F7040805190520F481E036
:1005200090E0A0E0B0E0BA01A901480F591F6A1F8E
:100530007B1FAA0CBB1CCC1CDD1C97FE08C081E0F5
:1005400090E0A0E0B0E0A82AB92ACA2ADB2A3196B6
:10055000E032F10549F0660C771C881C991C569412
:10056000479437942794C3CFFA85EA892B893C892D
:100570008B859C85280F391F2E5F3F4F17C0CA01FE
:1005800081709070892B61F016950795F794E79428
:1005900080E090E0A0E0B0E8E82AF92A0A2B1B2BC3
:1005A00076956795579547952F5F3F4F77FDE7CF36
:1005B0000CC0440F551F661F771F17FD4160EE0CDE
:1005C000FF1C001F111F21503040403090E05907A0
:1005D00090E0690790E4790760F32B8F3C8FDB0193
:1005E000CA018F779070A070B07080349105A1051A
:1005F000B10561F447FD0AC0E114F10401051105DC
:1006000029F0405C5F4F6F4F7F4F40781A8EFE1786
:1006100011F081E08A8F4D8F5E8F6F8F78A383E01A
:10062000898FCE0149960E94FD03A096E2E10C94C9
:10063000AB27A8E1B0E0EFE1F3E00C949B276983DE
:100640007A838B839C832D833E834F83588789E0F5
:10065000E82EF12CEC0EFD1ECE010196B7010E9492
:10066000D2048E010F5E1F4FCE010596B8010E9485
:10067000D2048985823040F08989823028F0C70110
:10068000B8010E944A0501C08FEF6896E6E00C941D
:10069000B727A8E1B0E0EFE4F3E00C949B2769836F
:1006A0007A838B839C832D833E834F83588789E095
:1006B000E82EF12CEC0EFD1ECE010196B7010E9432
:1006C000D2048E010F5E1F4FCE010596B8010E9425
:1006D000D2048985823040F08989823028F0C701B0
:1006E000B8010E944A0501C08FEF6896E6E00C94BD
:1006F000B727A8E1B0E0EFE7F3E00C949B2769830C
:100700007A838B839C832D833E834F83588789E034
:10071000E82EF12CEC0EFD1ECE010196B7010E94D1
:10072000D2048E010F5E1F4FCE010596B8010E94C4
:10073000D2048985823040F08989823028F0C7014F
:10074000B8010E944A0501C081E06896E6E00C9479
:10075000B727ACE0B0E0EFEAF3E00C949F276983A1
:100760007A838B839C83CE010196BE016B5F7F4FA2
:100770000E94D2048D81823061F1823050F1843048
:1007800021F48E81882351F12EC02F81388537FDC9
:1007900020C06E812F3131051CF06623F9F023C093
:1007A0008EE190E0821B930B29853A854B855C8511
:1007B00004C056954795379527958A95D2F76623B5
:1007C000B1F050954095309521953F4F4F4F5F4F79
:1007D0000EC020E030E040E050E009C02FEF3FEFD6
:1007E0004FEF5FE704C020E030E040E050E8B9019F
:1007F000CA012C96E2E00C94BB27DF92EF92FF92A5
:100800000F931F93FC01E480F58006811781D1804E
:100810008081823048F480E090E0A0E1B0E0E82AF6
:10082000F92A0A2B1B2BA5C0843009F49FC0823003
:1008300021F4EE24FF24870105C0E114F104010531
:10084000110519F4E0E0F0E096C0628173819FEF3A
:10085000623879070CF05BC022E83FEF261B370BAC
:100860002A3131052CF020E030E040E050E02AC091
:10087000B801A701022E04C0769567955795479554
:100880000A94D2F781E090E0A0E0B0E004C0880FC5
:10089000991FAA1FBB1F2A95D2F70197A109B10979
:1008A0008E219F21A023B1230097A105B10521F03E
:1008B00081E090E0A0E0B0E09A01AB01282B392B59
:1008C0004A2B5B2BDA01C9018F779070A070B07052
:1008D00080349105A105B10539F427FF09C0205CDA
:1008E0003F4F4F4F5F4F04C0215C3F4F4F4F5F4F13
:1008F000E0E0F0E02030A0E03A07A0E04A07A0E402
:100900005A0710F0E1E0F0E079018A0127C0603871
:10091000710564F5FB01E158FF4FD801C7018F77DE
:100920009070A070B07080349105A105B10539F4C4
:10093000E7FE0DC080E490E0A0E0B0E004C08FE3EB
:1009400090E0A0E0B0E0E80EF91E0A1F1B1F17FFA1
:1009500005C016950795F794E794319687E01695AC
:100960000795F794E7948A95D1F705C0EE24FF2404
:100970008701EFEFF0E06E2F679566276795902F60
:100980009F77D794DD24D7948E2F8695492F462BB9
:10099000582F5D29B701CA011F910F91FF90EF9069
:1009A000DF900895FC01DB01408151812281622F9B
:1009B0006F7770E0221F2227221F9381892F880FD3
:1009C000822B282F30E0991F9927991F11969C930D
:1009D000119721153105A9F54115510561057105DD
:1009E00011F482E037C082E89FEF13969C938E93B8
:1009F00012979A01AB0167E0220F331F441F551F66
:100A00006A95D1F783E08C930DC0220F331F441FEA
:100A1000551F12968D919C911397019713969C9355
:100A20008E931297203080E0380780E0480780E4FA
:100A3000580758F314962D933D934D935C93179755
:100A400008952F3F310579F4411551056105710570
:100A500019F484E08C93089564FF03C081E08C93C3
:100A600012C01C9210C02F57304013963C932E9307
:100A7000129783E08C9387E0440F551F661F771F02
:100A80008A95D1F7706414964D935D936D937C9322
:100A9000179708951F93DC01FB019C91923008F495
:100AA00047C08081823008F443C0943051F41196DD
:100AB0001C91843099F58181682F70E0611B710968
:100AC0003FC0843021F0923031F48230B9F181811D
:100AD000882389F12DC011961C9111978230F1F075
:100AE00081811817D9F412962D913C911397828128
:100AF00093818217930794F028173907BCF0149656
:100B00008D919D910D90BC91A02D248135814681C0
:100B10005781281739074A075B0718F4112341F05A
:100B20000AC082179307A407B50740F4112319F0F0
:100B300061E070E005C06FEF7FEF02C060E070E041
:100B4000CB011F910895DF93CF930F92CDB7DEB7FE
:100B500089838981982F917080E063E0492F0E94FA
:100B60009C1C89818695982F917080E064E0492FC4
:100B70000E949C1C898186958695982F917080E0B3
:100B800065E0492F0E949C1C8981869586958695F3
:100B9000982F917080E066E0492F0E949C1C0F9076
:100BA000CF91DF910895DF93CF93CDB7DEB72E9726
:100BB0000FB6F894DEBF0FBECDBF80E062E041E02B
:100BC0000E949C1C80E090E0A0E0B0E48B879C87B2
:100BD000AD87BE876B857C858D859E8520E030E066
:100BE0004AE755E40E941F02DC01CB018F839887FE
:100BF000A987BA876F81788589859A8520E030E05A
:100C000040E85FE30E94790388232CF481E090E0C0
:100C10009E838D833FC06F81788589859A8520E08A
:100C20003FEF4FE757E40E94190318164CF56B8508
:100C30007C858D859E8520E030E040E251E40E9475
:100C40001F02DC01CB01BC01CD010E944900DC0187
:100C5000CB019E838D830FC080E991E09C838B83C1
:100C60008B819C810197F1F79C838B838D819E8181
:100C700001979E838D838D819E81009769F714C0B3
:100C80006F81788589859A850E944900DC01CB01B6
:100C90009E838D838D819E819A83898389819A81A8
:100CA0000197F1F79A83898380E062E040E00E9437
:100CB0009C1C2E960FB6F894DEBF0FBECDBFCF9111
:100CC000DF910895DF93CF930F92CDB7DEB789837D
:100CD00080E061E040E00E949C1C898182958F70D9
:100CE0000E94A3050E94D30589810E94A3050E944A
:100CF000D3050F90CF91DF910895DF93CF930F929B
:100D0000CDB7DEB7898380E061E041E00E949C1CA2
:100D1000898182958F700E94A3050E94D3058981E5
:100D20000E94A3050E94D3050F90CF91DF910895F3
:100D3000DF93CF93CDB7DEB72E970FB6F894DEBF13
:100D40000FBECDBF80E090E0A0E2B2E48B879C872D
:100D5000AD87BE876B857C858D859E8520E030E0E4
:100D60004AE755E40E941F02DC01CB018F8398877C
:100D7000A987BA876F81788589859A8520E030E0D8
:100D800040E85FE30E94790388232CF481E090E03F
:100D90009E838D833FC06F81788589859A8520E009
:100DA0003FEF4FE757E40E94190318164CF56B8587
:100DB0007C858D859E8520E030E040E251E40E94F4
:100DC0001F02DC01CB01BC01CD010E944900DC0106
:100DD000CB019E838D830FC080E991E09C838B8340
:100DE0008B819C810197F1F79C838B838D819E8100
:100DF00001979E838D838D819E81009769F714C032
:100E00006F81788589859A850E944900DC01CB0134
:100E10009E838D838D819E819A83898389819A8126
:100E20000197F1F79A83898382E00E94A3050E94CB
:100E3000D30582E00E94A3050E94D30588E00E94AA
:100E4000A3050E94D3058CE00E94620681E00E9407
:100E500062062E960FB6F894DEBF0FBECDBFCF91BF
:100E6000DF910895DF93CF9300D000D0CDB7DEB7E8
:100E70009C838B831A828B819C810097E1F019827D
:100E80000EC08981282F30E08B819C81FC01E20F0C
:100E9000F31F80810E947D0689818F5F898389810C
:100EA000282F30E08B819C81FC01E20FF31F8081B1
:100EB000882339F702C082E08A838A810F900F90DD
:100EC0000F900F90CF91DF910895DF93CF93CDB71F
:100ED000DEB761970FB6F894DEBF0FBECDBF6E8749
:100EE0007F87888B998B1A8219828E859F85A88926
:100EF000B9890097A105B10521F480E30E947D0620
:100F000067C08E859F85A889B989BB230CF043C033
:100F10008E859F85A889B989B095A0959095819572
:100F20009F4FAF4FBF4F8E879F87A88BB98B8DE2A6
:100F30000E947D0630C08E859F85A889B9892AE0E8
:100F400030E040E050E0BC01CD010E945227DC01BE
:100F5000CB018B838E859F85A889B9892AE030E0F3
:100F600040E050E0BC01CD010E947427DA01C901C4
:100F70008E879F87A88BB98B8A81282F30E08B8141
:100F8000482F405DCE010496FC01E20FF31F408321
:100F90008A818F5F8A838E859F85A889B98900970A
:100FA000A105B10541F68A81815089830EC08981EE
:100FB000282F30E0CE010496FC01E20FF31F808160
:100FC0000E947D06898181508983898188237CF7ED
:100FD00061960FB6F894DEBF0FBECDBFCF91DF9103
:100FE0000895DF93CF9300D00F92CDB7DEB78A83F9
:100FF0006B838B81882319F48A81898306C08B8156
:10100000813019F48A81805C898389818068898331
:1010100089810E9462060F900F900F90CF91DF910F
:101020000895DF93CF93CDB7DEB728970FB6F89426
:10103000DEBF0FBECDBF8C837E836D834F83288739
:101040001B821A828D819E81009759F18C81882F95
:1010500090E0880F991F880F991F880F991F898327
:1010600089818064898389810E9462061A820EC008
:101070008A81282F30E08D819E81FC01E20FF31FD1
:1010800080810E947D068A818F5F8A838A81883071
:1010900078F38F8168850E94F1078C810E947D061C
:1010A00002C082E08B838B8128960FB6F894DEBF56
:1010B0000FBECDBFCF91DF910895DF93CF93CDB712
:1010C000DEB781E00E946206CF91DF9108950F9311
:1010D0001F93DF93CF93CDB7DEB7C356D1400FB682
:1010E000F894DEBF0FBECDBFCE018E519F4FCE5CB8
:1010F000DE4F99838883C253D1408CE191E0CC5C70
:10110000DE4F99838883C453D14098E0CA5CDE4F98
:101110009883C653D140CC5CDE4FE881F981C4533B
:10112000D1400080CC5CDE4F88819981C453D1408E
:101130000196CC5CDE4F99838883C453D140CE5C4A
:10114000DE4FE881F981C253D1400082CE5CDE4F90
:1011500088819981C253D1400196CE5CDE4F99833C
:101160008883C253D140CA5CDE4F9881C653D140B8
:101170009150CA5CDE4F9883C653D140CA5CDE4FA3
:10118000E881C653D140EE2331F6CE0186519F4F00
:10119000C95CDE4F99838883C753D14084E191E0D5
:1011A000C75CDE4F99838883C953D14098E0C55C02
:1011B000DE4F9883CB53D140C75CDE4FE881F98185
:1011C000C953D1400080C75CDE4F88819981C953E3
:1011D000D1400196C75CDE4F99838883C953D140C3
:1011E000C95CDE4FE881F981C753D1400082C95CF8
:1011F000DE4F88819981C753D1400196C95CDE4F8B
:1012000099838883C753D140C55CDE4F9881CB5307
:10121000D1409150C55CDE4F9883CB53D140C55C23
:10122000DE4FE881CB53D140EE2331F6CE018E5014
:101230009F4FC45CDE4F99838883CC53D1408CE0B0
:1012400091E0C25CDE4F99838883CE53D14098E011
:10125000C05CDE4F9883C054D140C25CDE4FE88151
:10126000F981CE53D1400080C25CDE4F88819981E4
:10127000CE53D1400196C25CDE4F99838883CE5312
:10128000D140C45CDE4FE881F981CC53D14000826B
:10129000C45CDE4F88819981CC53D1400196C45CF7
:1012A000DE4F99838883CC53D140C05CDE4F988158
:1012B000C054D1409150C05CDE4F9883C054D1409F
:1012C000C05CDE4FE881C054D140EE2331F6CE0140
:1012D00086509F4FCF5BDE4F99838883C154D140A6
:1012E00084E091E0CD5BDE4F99838883C354D14085
:1012F00098E0CB5BDE4F9883C554D140CD5BDE4F89
:10130000E881F981C354D1400080CD5BDE4F8881F4
:101310009981C354D1400196CD5BDE4F9983888378
:10132000C354D140CF5BDE4FE881F981C154D14035
:101330000082CF5BDE4F88819981C154D1400196F4
:10134000CF5BDE4F99838883C154D140CB5BDE4FA6
:101350009881C554D1409150CB5BDE4F9883C554E2
:10136000D140CB5BDE4FE881C554D140EE2331F64E
:10137000CE018E5F9E4FCA5BDE4F99838883C65431
:10138000D1408CEF90E0C85BDE4F99838883C854CE
:10139000D14098E0C65BDE4F9883CA54D140C85B09
:1013A000DE4FE881F981C854D1400080C85BDE4F30
:1013B00088819981C854D1400196C85BDE4F9983DA
:1013C0008883C854D140CA5BDE4FE881F981C65496
:1013D000D1400082CA5BDE4F88819981C654D140DA
:1013E0000196CA5BDE4F99838883C654D140C65BA1
:1013F000DE4F9881CA54D1409150C65BDE4F98832E
:10140000CA54D140C65BDE4FE881CA54D140EE23B6
:1014100031F6CE01865F9E4FC55BDE4F9983888390
:10142000CB54D14084EF90E0C35BDE4F9983888337
:10143000CD54D14098E0C15BDE4F9883CF54D1406A
:10144000C35BDE4FE881F981CD54D1400080C35B9E
:10145000DE4F88819981CD54D1400196C35BDE4F28
:1014600099838883CD54D140C55BDE4FE881F981F3
:10147000CB54D1400082C55BDE4F88819981CB542B
:10148000D1400196C55BDE4F99838883CB54D14010
:10149000C15BDE4F9881CF54D1409150C15BDE4F8C
:1014A0009883CF54D140C15BDE4FE881CF54D14007
:1014B000EE2331F6CE018E5E9E4FC05BDE4F9983E8
:1014C0008883C055D1408CEE90E0CE5ADE4F998390
:1014D0008883C255D14098E0CC5ADE4F9883C455DA
:1014E000D140CE5ADE4FE881F981C255D14000800B
:1014F000CE5ADE4F88819981C255D1400196CE5A8D
:10150000DE4F99838883C255D140C05BDE4FE881AE
:10151000F981C055D1400082C05BDE4F888199813E
:10152000C055D1400196C05BDE4F99838883C0557A
:10153000D140CC5ADE4F9881C455D1409150CC5AFD
:10154000DE4F9883C455D140CC5ADE4FE881C45554
:10155000D140EE2331F6CE01865E9E4FCB5ADE4F50
:1015600099838883C555D14084EE90E0C95ADE4FF7
:1015700099838883C755D14098E0C75ADE4F988336
:10158000C955D140C95ADE4FE881F981C755D140CC
:101590000080C95ADE4F88819981C755D140019694
:1015A000C95ADE4F99838883C755D140CB5ADE4F45
:1015B000E881F981C555D1400082CB5ADE4F888140
:1015C0009981C555D1400196CB5ADE4F99838883C6
:1015D000C555D140C75ADE4F9881C955D140915069
:1015E000C75ADE4F9883C955D140C75ADE4FE881AC
:1015F000C955D140EE2331F6CE018E5D9E4FC65ABD
:10160000DE4F99838883CA55D1408CED90E0C45A4F
:10161000DE4F99838883CC55D14098E0C25ADE4F83
:101620009883CE55D140C45ADE4FE881F981CC551C
:10163000D1400080C45ADE4F88819981CC55D14079
:101640000196C45ADE4F99838883CC55D140C65A3F
:10165000DE4FE881F981CA55D1400082C65ADE4F7B
:1016600088819981CA55D1400196C65ADE4F998327
:101670008883CA55D140C25ADE4F9881CE55D14099
:101680009150C25ADE4F9883CE55D140C25ADE4F98
:10169000E881CE55D140EE2331F6CE01865D9E4FD6
:1016A000C15ADE4F99838883CF55D14084ED90E0B5
:1016B000CF59DE4F99838883C156D14098E0CD59E8
:1016C000DE4F9883C356D140CF59DE4FE881F98170
:1016D000C156D1400080CF59DE4F88819981C156D3
:1016E000D1400196CF59DE4F99838883C156D140AE
:1016F000C15ADE4FE881F981CF55D1400082C15AED
:10170000DE4F88819981CF55D1400196C15ADE4F75
:1017100099838883CF55D140CD59DE4F9881C356E8
:10172000D1409150CD59DE4F9883C356D140CD5909
:10173000DE4FE881C356D140EE2331F60E945D08AA
:1017400080E060E00E94F10780E690E00E943207AE
:101750009E0126513F4F80E0B90147E021E00E9401
:101760001108FE01E352FF4F80E090E0AFE2B4E4E5
:1017700080839183A283B3838E0107521F4FFE01A2
:10178000E352FF4F608171818281938120E030E0DC
:101790004AE755E40E941F02DC01CB01F801808377
:1017A0009183A283B383FE01E752FF4F6081718171
:1017B0008281938120E030E040E85FE30E9479037A
:1017C000882344F4FE01E952FF4F81E090E09183C9
:1017D000808364C0FE01E752FF4F60817181828186
:1017E000938120E03FEF4FE757E40E94190318165A
:1017F0000CF043C0FE01E352FF4F60817181828192
:10180000938120E030E040E251E40E941F02DC01BD
:10181000CB018E0109521F4FBC01CD010E9449002E
:10182000DC01CB01F801918380831FC0FE01EB52E4
:10183000FF4F80E991E091838083FE01EB52FF4FDF
:10184000808191810197F1F7FE01EB52FF4F918367
:101850008083DE01A952BF4FFE01E952FF4F808114
:101860009181019711969C938E93FE01E952FF4F4F
:10187000808191810097D1F627C08E0109521F4FB8
:10188000FE01E752FF4F60817181828193810E9446
:101890004900DC01CB01F80191838083DE01AD5268
:1018A000BF4FFE01E952FF4F808191818D939C9340
:1018B000FE01ED52FF4F808191810197F1F7FE010A
:1018C000ED52FF4F918380830E945D0880E060E0CD
:1018D0000E94F10781E790E00E943207FE01E15388
:1018E000FF4F80E090E0A6E1B4E480839183A2837F
:1018F000B3838E0105531F4FFE01E153FF4F6081FB
:1019000071818281938120E030E04AE755E40E94B2
:101910001F02DC01CB01F80180839183A283B38392
:10192000FE01E553FF4F608171818281938120E048
:1019300030E040E85FE30E947903882344F4FE012D
:10194000E753FF4F81E090E09183808364C0FE0104
:10195000E553FF4F608171818281938120E03FEFE9
:101960004FE757E40E94190318160CF043C0FE011C
:10197000E153FF4F608171818281938120E030E0EB
:1019800040E251E40E941F02DC01CB018E010753AB
:101990001F4FBC01CD010E944900DC01CB01F801C1
:1019A000918380831FC0FE01E953FF4F80E991E0DE
:1019B00091838083FE01E953FF4F808191810197DC
:1019C000F1F7FE01E953FF4F91838083DE01A753B6
:1019D000BF4FFE01E753FF4F808191810197119620
:1019E0009C938E93FE01E753FF4F80819181009776
:1019F000D1F628C08E0107531F4FFE01E553FF4F5C
:101A000060817181828193810E944900DC01CB0158
:101A1000F80191838083DE01AB53BF4FFE01E75392
:101A2000FF4F8081918111969C938E93FE01EB5321
:101A3000FF4F808191810197F1F7FE01EB53FF4F3A
:101A400091838083FE01EF51FF4F108293C10E946A
:101A50005D08FE01EF51FF4F9081DE01AF51BF4F96
:101A6000FE01EF51FF4F80818F5F8C939E012E5FAF
:101A70003E4F80E0B901492F21E00E941108FE018C
:101A8000EF53FF4F80E090E0A0E2B2E480839183C7
:101A9000A283B3838E0103541F4FFE01EF53FF4F08
:101AA000608171818281938120E030E04AE755E4D2
:101AB0000E941F02DC01CB01F80180839183A28385
:101AC000B383FE01E354FF4F608171818281938172
:101AD00020E030E040E85FE30E947903882344F48B
:101AE000FE01E554FF4F81E090E09183808364C064
:101AF000FE01E354FF4F608171818281938120E078
:101B00003FEF4FE757E40E94190318160CF043C04B
:101B1000FE01EF53FF4F608171818281938120E04C
:101B200030E040E251E40E941F02DC01CB018E0153
:101B300005541F4FBC01CD010E944900DC01CB01BF
:101B4000F801918380831FC0FE01E754FF4F80E9B5
:101B500091E091838083FE01E754FF4F8081918162
:101B60000197F1F7FE01E754FF4F91838083DE0177
:101B7000A554BF4FFE01E554FF4F8081918101972D
:101B800011969C938E93FE01E554FF4F80819181C5
:101B90000097D1F627C08E0105541F4FFE01E35474
:101BA000FF4F60817181828193810E944900DC0135
:101BB000CB01F80191838083DE01A954BF4FFE0160
:101BC000E554FF4F808191818D939C93FE01E954F0
:101BD000FF4F808191810197F1F7FE01E954FF4F9A
:101BE000918380839E01265F3E4FFE01EF51FF4FA0
:101BF00080E0B901408121E00E941108FE01ED540E
:101C0000FF4F80E090E0A0E2B2E480839183A28362
:101C1000B3838E0101551F4FFE01ED54FF4F6081CC
:101C200071818281938120E030E04AE755E40E948F
:101C30001F02DC01CB01F80180839183A283B3836F
:101C4000FE01E155FF4F608171818281938120E027
:101C500030E040E85FE30E947903882344F4FE010A
:101C6000E355FF4F81E090E09183808364C0FE01E3
:101C7000E155FF4F608171818281938120E03FEFC8
:101C80004FE757E40E94190318160CF043C0FE01F9
:101C9000ED54FF4F608171818281938120E030E0BB
:101CA00040E251E40E941F02DC01CB018E0103558A
:101CB0001F4FBC01CD010E944900DC01CB01F8019E
:101CC000918380831FC0FE01E555FF4F80E991E0BD
:101CD00091838083FE01E555FF4F808191810197BB
:101CE000F1F7FE01E555FF4F91838083DE01A35597
:101CF000BF4FFE01E355FF4F8081918101971196FF
:101D00009C938E93FE01E355FF4F80819181009754
:101D1000D1F627C08E0103551F4FFE01E155FF4F3D
:101D200060817181828193810E944900DC01CB0135
:101D3000F80191838083DE01A755BF4FFE01E35573
:101D4000FF4F808191818D939C93FE01E755FF4F5A
:101D5000808191810197F1F7FE01E755FF4F918353
:101D60008083DE01AF51BF4FFE01EF51FF4F8081F5
:101D70008F5F8C93FE01EF51FF4F8081803108F41B
:101D800066CE0E945D0880E060E00E94F1078BE76C
:101D900090E00E943207FE01EB55FF4F80E090E09B
:101DA000A6E1B4E480839183A283B3838E010F55AF
:101DB0001F4FFE01EB55FF4F60817181828193813E
:101DC00020E030E04AE755E40E941F02DC01CB012D
:101DD000F80180839183A283B383FE01EF55FF4F07
:101DE000608171818281938120E030E040E85FE38F
:101DF0000E947903882344F4FE01E156FF4F81E0FD
:101E000090E09183808364C0FE01EF55FF4F6081B5
:101E100071818281938120E03FEF4FE757E40E9478
:101E2000190318160CF043C0FE01EB55FF4F6081FB
:101E300071818281938120E030E040E251E40E9490
:101E40001F02DC01CB018E0101561F4FBC01CD01E9
:101E50000E944900DC01CB01F801918380831FC0FF
:101E6000FE01E356FF4F80E991E091838083FE01FC
:101E7000E356FF4F808191810197F1F7FE01E35610
:101E8000FF4F91838083DE01A156BF4FFE01E156D3
:101E9000FF4F80819181019711969C938E93FE0153
:101EA000E156FF4F808191810097D1F628C08E01C5
:101EB00001561F4FFE01EF55FF4F608171818281F6
:101EC00093810E944900DC01CB01F801918380835A
:101ED000DE01A556BF4FFE01E156FF4F8081918183
:101EE00011969C938E93FE01E556FF4F8081918160
:101EF0000197F1F7FE01E556FF4F91838083FE01C4
:101F0000EF51FF4F10823DC29E0126513F4F80E0AE
:101F1000B90147E021E00E941108FE01E956FF4F98
:101F200080E090E0A0E2B2E480839183A283B38357
:101F30008E010D561F4FFE01E956FF4F60817181E2
:101F40008281938120E030E04AE755E40E941F023D
:101F5000DC01CB01F80180839183A283B383FE016E
:101F6000ED56FF4F608171818281938120E030E0E6
:101F700040E85FE30E947903882344F4FE01EF56B2
:101F8000FF4F81E090E09183808364C0FE01ED56B5
:101F9000FF4F608171818281938120E03FEF4FE7A5
:101FA00057E40E94190318160CF043C0FE01E956CD
:101FB000FF4F608171818281938120E030E040E2B7
:101FC00051E40E941F02DC01CB018E010F561F4F0E
:101FD000BC01CD010E944900DC01CB01F8019183D5
:101FE00080831FC0FE01E157FF4F80E991E091839C
:101FF0008083FE01E157FF4F808191810197F1F7C6
:10200000FE01E157FF4F91838083DE01AF56BF4F42
:10201000FE01EF56FF4F80819181019711969C93AD
:102020008E93FE01EF56FF4F808191810097D1F68C
:1020300027C08E010F561F4FFE01ED56FF4F6081E6
:102040007181828193810E944900DC01CB01F801FA
:1020500091838083DE01A357BF4FFE01EF56FF4FF0
:10206000808191818D939C93FE01E357FF4F808186
:1020700091810197F1F7FE01E357FF4F9183808330
:102080009E012E503F4F81E0B90147E021E00E94C0
:102090001108FE01E757FF4F80E090E0A0E2B2E4B4
:1020A00080839183A283B3838E010B571F4FFE0160
:1020B000E757FF4F608171818281938120E030E09A
:1020C0004AE755E40E941F02DC01CB01F80180833E
:1020D0009183A283B383FE01EB57FF4F608171812F
:1020E0008281938120E030E040E85FE30E94790341
:1020F000882344F4FE01ED57FF4F81E090E0918387
:10210000808364C0FE01EB57FF4F60817181828143
:10211000938120E03FEF4FE757E40E941903181620
:102120000CF043C0FE01E757FF4F6081718182814F
:10213000938120E030E040E251E40E941F02DC0184
:10214000CB018E010D571F4FBC01CD010E944900EC
:10215000DC01CB01F801918380831FC0FE01EF57A2
:10216000FF4F80E991E091838083FE01EF57FF4F9D
:10217000808191810197F1F7FE01EF57FF4F918325
:102180008083DE01AD57BF4FFE01ED57FF4F8081C9
:102190009181019711969C938E93FE01ED57FF4F0D
:1021A000808191810097D1F627C08E010D571F4F76
:1021B000FE01EB57FF4F60817181828193810E9404
:1021C0004900DC01CB01F80191838083DE01A15835
:1021D000BF4FFE01ED57FF4F808191818D939C93FE
:1021E000FE01E158FF4F808191810197F1F7FE01D7
:1021F000E158FF4F918380839E0126503F4F82E03C
:10220000B90147E021E00E941108FE01E558FF4FA7
:1022100080E090E0A0E2B2E480839183A283B38364
:102220008E0109581F4FFE01E558FF4F60817181F3
:102230008281938120E030E04AE755E40E941F024A
:10224000DC01CB01F80180839183A283B383FE017B
:10225000E958FF4F608171818281938120E030E0F5
:1022600040E85FE30E947903882344F4FE01EB58C1
:10227000FF4F81E090E09183808364C0FE01E958C4
:10228000FF4F608171818281938120E03FEF4FE7B2
:1022900057E40E94190318160CF043C0FE01E558DC
:1022A000FF4F608171818281938120E030E040E2C4
:1022B00051E40E941F02DC01CB018E010B581F4F1D
:1022C000BC01CD010E944900DC01CB01F8019183E2
:1022D00080831FC0FE01ED58FF4F80E991E091839C
:1022E0008083FE01ED58FF4F808191810197F1F7C6
:1022F000FE01ED58FF4F91838083DE01AB58BF4F45
:10230000FE01EB58FF4F80819181019711969C93BC
:102310008E93FE01EB58FF4F808191810097D1F69B
:1023200027C08E010B581F4FFE01E958FF4F6081F7
:102330007181828193810E944900DC01CB01F80107
:1023400091838083DE01AF58BF4FFE01EB58FF4FF2
:10235000808191818D939C93FE01EF58FF4F808186
:1023600091810197F1F7FE01EF58FF4F9183808330
:10237000DE01AF51BF4FFE01EF51FF4F80818F5FF4
:102380008C93FE01EF51FF4F80818A3008F4BCCD61
:102390000E945D0880E060E00E94F10787E890E01D
:1023A0000E943207FE01E359FF4F80E090E0A6E172
:1023B000B4E480839183A283B3838E0107591F4FB6
:1023C000FE01E359FF4F608171818281938120E09A
:1023D00030E04AE755E40E941F02DC01CB01F8011E
:1023E00080839183A283B383FE01E759FF4F60810D
:1023F00071818281938120E030E040E85FE30E94B8
:102400007903882344F4FE01E959FF4F81E090E00D
:102410009183808364C0FE01E759FF4F6081718121
:102420008281938120E03FEF4FE757E40E94190338
:1024300018160CF043C0FE01E359FF4F6081718113
:102440008281938120E030E040E251E40E941F024B
:10245000DC01CB018E0109591F4FBC01CD010E9447
:102460004900DC01CB01F801918380831FC0FE018C
:10247000EB59FF4F80E991E091838083FE01EB5996
:10248000FF4F808191810197F1F7FE01EB59FF4FDA
:1024900091838083DE01A959BF4FFE01E959FF4FA7
:1024A00080819181019711969C938E93FE01E95949
:1024B000FF4F808191810097D1F628C08E01095984
:1024C0001F4FFE01E759FF4F608171818281938127
:1024D0000E944900DC01CB01F80191838083DE0179
:1024E000AD59BF4FFE01E959FF4F8081918111968F
:1024F0009C938E93FE01ED59FF4F8081918101974E
:10250000F1F7FE01ED59FF4F91838083FE01EF51FA
:10251000FF4F108293C10E945D08FE01EF51FF4FF3
:102520009081DE01AF51BF4FFE01EF51FF4F80811F
:102530008F5F8C939E012E5F3E4F80E0B901492F43
:1025400021E00E941108FE01E15AFF4F80E090E077
:10255000A0E2B2E480839183A283B3838E01055A03
:102560001F4FFE01E15AFF4F60817181828193818B
:1025700020E030E04AE755E40E941F02DC01CB0175
:10258000F80180839183A283B383FE01E55AFF4F54
:10259000608171818281938120E030E040E85FE3D7
:1025A0000E947903882344F4FE01E75AFF4F81E03B
:1025B00090E09183808364C0FE01E55AFF4F608103
:1025C00071818281938120E03FEF4FE757E40E94C1
:1025D000190318160CF043C0FE01E15AFF4F608149
:1025E00071818281938120E030E040E251E40E94D9
:1025F0001F02DC01CB018E01075A1F4FBC01CD0128
:102600000E944900DC01CB01F801918380831FC047
:10261000FE01E95AFF4F80E991E091838083FE013A
:10262000E95AFF4F808191810197F1F7FE01E95A44
:10263000FF4F91838083DE01A75ABF4FFE01E75A07
:10264000FF4F80819181019711969C938E93FE019B
:10265000E75AFF4F808191810097D1F627C08E0104
:10266000075A1F4FFE01E55AFF4F60817181828139
:1026700093810E944900DC01CB01F80191838083A2
:10268000DE01AB5ABF4FFE01E75AFF4F80819181B7
:102690008D939C93FE01EB5AFF4F808191810197AE
:1026A000F1F7FE01EB5AFF4F918380839E012E5E6E
:1026B0003E4FFE01EF51FF4F80E0B901408121E024
:1026C0000E941108FE01EF5AFF4F80E090E0A0E267
:1026D000B2E480839183A283B3838E01035B1F4F97
:1026E000FE01EF5AFF4F608171818281938120E06A
:1026F00030E04AE755E40E941F02DC01CB01F801FB
:1027000080839183A283B383FE01E35BFF4F6081EB
:1027100071818281938120E030E040E85FE30E9494
:102720007903882344F4FE01E55BFF4F81E090E0EC
:102730009183808364C0FE01E35BFF4F6081718100
:102740008281938120E03FEF4FE757E40E94190315
:1027500018160CF043C0FE01EF5AFF4F60817181E3
:102760008281938120E030E040E251E40E941F0228
:10277000DC01CB018E01055B1F4FBC01CD010E9426
:102780004900DC01CB01F801918380831FC0FE0169
:10279000E75BFF4F80E991E091838083FE01E75B77
:1027A000FF4F808191810197F1F7FE01E75BFF4FB9
:1027B00091838083DE01A55BBF4FFE01E55BFF4F88
:1027C00080819181019711969C938E93FE01E55B28
:1027D000FF4F808191810097D1F627C08E01055B64
:1027E0001F4FFE01E35BFF4F608171818281938106
:1027F0000E944900DC01CB01F80191838083DE0156
:10280000A95BBF4FFE01E55BFF4F808191818D93F6
:102810009C93FE01E95BFF4F808191810197F1F765
:10282000FE01E95BFF4F91838083DE01AF51BF4F13
:10283000FE01EF51FF4F80818F5F8C93FE01EF51BE
:10284000FF4F8081803108F466CE0E945D0880E0F1
:1028500060E00E94F10788E990E00E943207FE01E3
:10286000ED5BFF4F80E090E0A6E1B4E480839183CC
:10287000A283B3838E01015C1F4FFE01ED5BFF4F0E
:10288000608171818281938120E030E04AE755E4E4
:102890000E941F02DC01CB01F80180839183A28397
:1028A000B383FE01FF96608171818281938120E074
:1028B00030E040E85FE30E94790388232CF481E054
:1028C00090E09EAF8DAF46C0FE01FF9660817181A2
:1028D0008281938120E03FEF4FE757E40E94190384
:1028E000181664F5FE01ED5BFF4F608171818281F6
:1028F000938120E030E040E251E40E941F02DC01BD
:10290000CB01BC01CD010E944900DC01CB019EAF8F
:102910008DAF0FC080E991E09CAF8BAF8BAD9CADCC
:102920000197F1F79CAF8BAF8DAD9EAD01979EAF38
:102930008DAF8DAD9EAD009769F716C0FE01FF9675
:1029400060817181828193810E944900DC01CB0109
:102950009EAF8DAF8DAD9EAD9AAF89AF89AD9AAD6B
:102960000197F1F79AAF89AF0E945D089E01265149
:102970003F4F80E0B9014DE021E00E9411089E0127
:10298000265E3E4F81E0B90140E021E00E9411083F
:102990009E012E5D3E4F82E0B90141E021E00E94A0
:1029A00011089E012E5D3E4F83E0B90142E021E017
:1029B0000E9411089E01265D3E4F84E0B90144E06B
:1029C00021E00E94110880E090E0A0EFB1E48DAB1F
:1029D0009EABAFABB8AF6DA97EA98FA998AD20E033
:1029E00030E04AE755E40E941F02DC01CB0189ABCD
:1029F0009AABABABBCAB69A97AA98BA99CA920E027
:102A000030E040E85FE30E94790388232CF481E002
:102A100090E098AB8FA73FC069A97AA98BA99CA920
:102A200020E03FEF4FE757E40E94190318164CF5DA
:102A30006DA97EA98FA998AD20E030E040E251E475
:102A40000E941F02DC01CB01BC01CD010E944900A4
:102A5000DC01CB0198AB8FA70FC080E991E09EA766
:102A60008DA78DA59EA50197F1F79EA78DA78FA590
:102A700098A9019798AB8FA78FA598A9009769F798
:102A800014C069A97AA98BA99CA90E944900DC01FC
:102A9000CB0198AB8FA78FA598A99CA78BA78BA5D7
:102AA0009CA50197F1F79CA78BA79E01265D3E4F41
:102AB00085E0B90147E021E00E94110880E090E044
:102AC000A0EFB1E48FA398A7A9A7BAA76FA178A593
:102AD00089A59AA520E030E04AE755E40E941F024C
:102AE000DC01CB018BA39CA3ADA3BEA36BA17CA1F6
:102AF0008DA19EA120E030E040E85FE30E947903D1
:102B000088232CF481E090E09AA389A33FC06BA1B5
:102B10007CA18DA19EA120E03FEF4FE757E40E94EA
:102B2000190318164CF56FA178A589A59AA520E080
:102B300030E040E251E40E941F02DC01CB01BC0105
:102B4000CD010E944900DC01CB019AA389A30FC0EB
:102B500080E991E098A38F8F8F8D98A10197F1F76D
:102B600098A38F8F89A19AA101979AA389A389A17C
:102B70009AA1009769F714C06BA17CA18DA19EA1B9
:102B80000E944900DC01CB019AA389A389A19AA1E3
:102B90009E8F8D8F8D8D9E8D0197F1F79E8F8D8FDE
:102BA0009E01265D3E4F86E0B90149E021E00E948A
:102BB000110880E090E0A0EFB1E4898F9A8FAB8F8D
:102BC000BC8F698D7A8D8B8D9C8D20E030E04AE73B
:102BD00055E40E941F02DC01CB018D8B9E8BAF8BD5
:102BE000B88F6D897E898F89988D20E030E040E82C
:102BF0005FE30E94790388232CF481E090E09C8BB2
:102C00008B8B3FC06D897E898F89988D20E03FEF47
:102C10004FE757E40E94190318164CF5698D7A8D19
:102C20008B8D9C8D20E030E040E251E40E941F0239
:102C3000DC01CB01BC01CD010E944900DC01CB01CC
:102C40009C8B8B8B0FC080E991E09A8B898B898953
:102C50009A890197F1F79A8B898B8B899C890197C7
:102C60009C8B8B8B8B899C89009769F714C06D892D
:102C70007E898F89988D0E944900DC01CB019C8B55
:102C80008B8B8B899C89988B8F878F8598890197EF
:102C9000F1F7988B8F879E012E513F4F80E0B9014D
:102CA0004DE021E00E94110880E090E0A6E9B3E445
:102CB0008B879C87AD87BE876B857C858D859E8540
:102CC00020E030E04AE755E40E941F02DC01CB011E
:102CD0008F839887A987BA876F81788589859A8538
:102CE00020E030E040E85FE30E94790388232CF481
:102CF00081E090E09E838D833FC06F8178858985D8
:102D00009A8520E03FEF4FE757E40E941903181619
:102D10004CF56B857C858D859E8520E030E040E21A
:102D200051E40E941F02DC01CB01BC01CD010E94D5
:102D30004900DC01CB019E838D830FC080E991E0C7
:102D40009C838B838B819C810197F1F79C838B8380
:102D50008D819E8101979E838D838D819E810097B9
:102D600069F714C06F81788589859A850E9449002A
:102D7000DC01CB019E838D838D819E819A83898323
:102D800089819A810197F1F79A838983CD59DE4F22
:102D90000FB6F894DEBF0FBECDBFCF91DF911F916C
:102DA0000F910895DF93CF93CDB7DEB7C155D040D3
:102DB0000FB6F894DEBF0FBECDBFCE0141969AAFDD
:102DC00089AFE4E4F1E0FCAFEBAFF8E0FDAFEBADD1
:102DD000FCAD00808BAD9CAD01969CAF8BAFE9AD97
:102DE000FAAD008289AD9AAD01969AAF89AF9DADDB
:102DF00091509DAFEDADEE2351F7CE0149969FAFB7
:102E00008EAFECE3F1E02296FFAFEEAF2297F8E051
:102E10002396FFAF23972296EEADFFAD2297008059
:102E200022968EAD9FAD2297019622969FAF8EAFD0
:102E30002297EEADFFAD00828EAD9FAD01969FAFA4
:102E40008EAF23969FAD2397915023969FAF2397E4
:102E50002396EFAD2397EE23F1F6CE0181962596CA
:102E60009FAF8EAF2597E4E3F1E02796FFAFEEAF7B
:102E70002797F8E02896FFAF28972796EEADFFAD8D
:102E80002797008027968EAD9FAD279701962796AE
:102E90009FAF8EAF27972596EEADFFAD25970082A9
:102EA00025968EAD9FAD2597019625969FAF8EAF47
:102EB000259728969FAD2897915028969FAF2897E1
:102EC0002896EFAD2897EE23C1F6CE0189962A9673
:102ED0009FAF8EAF2A97ECE2F1E02C96FFAFEEAFFA
:102EE0002C97F8E02D96FFAF2D972C96EEADFFAD09
:102EF0002C9700802C968EAD9FAD2C9701962C962A
:102F00009FAF8EAF2C972A96EEADFFAD2A97008229
:102F10002A968EAD9FAD2A9701962A969FAF8EAFC7
:102F20002A972D969FAD2D9791502D969FAF2D9757
:102F30002D96EFAD2D97EE23C1F6CE01C1962F96BB
:102F40009FAF8EAF2F97E4E2F1E06196FFAFEEAF57
:102F50006197F8E06296FFAF62976196EEADFFADC4
:102F60006197008061968EAD9FAD619701966196E5
:102F70009FAF8EAF61972F96EEADFFAD2F9700827A
:102F80002F968EAD9FAD2F9701962F969FAF8EAF48
:102F90002F9762969FAD6297915062969FAF62970E
:102FA0006296EFAD6297EE23C1F68FE0888B1F86A5
:102FB000BCC0988988898150888B9E012F5E3F4FC5
:102FC00080E0B901492F2F850E94110898898889CE
:102FD0008150888B9E01275E3F4F81E0B901492FC8
:102FE0002F850E941108988988898150888B9E01BD
:102FF0002F5D3F4F82E0B901492F2F850E941108B4
:10300000988988898150888B9E01275D3F4F83E096
:10301000B901492F2F850E9411089E012F5C3F4F57
:1030200084E0B90148892F850E94110880E090E072
:10303000A0EAB2E48B879C87AD87BE876B857C85D1
:103040008D859E8520E030E04AE755E40E941F020E
:10305000DC01CB018F839887A987BA876F81788538
:1030600089859A8520E030E040E85FE30E9479039B
:1030700088232CF481E090E09E838D833FC06F8194
:10308000788589859A8520E03FEF4FE757E40E94D5
:10309000190318164CF56B857C858D859E8520E07F
:1030A00030E040E251E40E941F02DC01CB01BC0190
:1030B000CD010E944900DC01CB019E838D830FC0AE
:1030C00080E991E09C838B838B819C810197F1F750
:1030D0009C838B838D819E8101979E838D838D81BF
:1030E0009E81009769F714C06F81788589859A85DC
:1030F0000E944900DC01CB019E838D838D819E81DE
:103100009A83898389819A810197F1F79A838983C8
:103110000E945D088F85813011F48FEF8F87888939
:103120008150888B8F858F5F8F878889882321F0D6
:103130008F85823008F43DCFCF5ADF4F0FB6F89419
:10314000DEBF0FBECDBFCF91DF910895DF93CF9348
:10315000CDB7DEB7E7970FB6F894DEBF0FBECDBF91
:10316000CE014E969FA78EA7E4E5F1E0F9ABE8AB60
:10317000F8E0FAABE8A9F9A9008088A999A9019615
:1031800099AB88ABEEA5FFA500828EA59FA5019601
:103190009FA78EA79AA991509AABEAA9EE2351F75F
:1031A000CE0186969CAB8BABECE4F1E0FEABEDABD5
:1031B000F8E0FFABEDA9FEA900808DA99EA90196BC
:1031C0009EAB8DABEBA9FCA900828BA99CA90196B3
:1031D0009CAB8BAB9FA991509FABEFA9EE2351F70E
:1031E0001D8EFFC00E945D089D8D8D8D8F5F8D8F20
:1031F0009E01225E3F4F80E0B901492F21E00E94ED
:10320000110880E090E0A0E2B2E4898F9A8FAB8F42
:10321000BC8F698D7A8D8B8D9C8D20E030E04AE7E4
:1032200055E40E941F02DC01CB018D8B9E8BAF8B7E
:10323000B88F6D897E898F89988D20E030E040E8D5
:103240005FE30E94790388232CF481E090E09C8B5B
:103250008B8B3FC06D897E898F89988D20E03FEFF1
:103260004FE757E40E94190318164CF5698D7A8DC3
:103270008B8D9C8D20E030E040E251E40E941F02E3
:10328000DC01CB01BC01CD010E944900DC01CB0176
:103290009C8B8B8B0FC080E991E09A8B898B8989FD
:1032A0009A890197F1F79A8B898B8B899C89019771
:1032B0009C8B8B8B8B899C89009769F714C06D89D7
:1032C0007E898F89988D0E944900DC01CB019C8BFF
:1032D0008B8B8B899C89988B8F878F859889019799
:1032E000F1F7988B8F879E012A5D3F4F80E0B901EF
:1032F0004D8D21E00E94110880E090E0A0E2B2E450
:103300008B879C87AD87BE876B857C858D859E85E9
:1033100020E030E04AE755E40E941F02DC01CB01C7
:103320008F839887A987BA876F81788589859A85E1
:1033300020E030E040E85FE30E94790388232CF42A
:1033400081E090E09E838D833FC06F817885898581
:103350009A8520E03FEF4FE757E40E9419031816C3
:103360004CF56B857C858D859E8520E030E040E2C4
:1033700051E40E941F02DC01CB01BC01CD010E947F
:103380004900DC01CB019E838D830FC080E991E071
:103390009C838B838B819C810197F1F79C838B832A
:1033A0008D819E8101979E838D838D819E81009763
:1033B00069F714C06F81788589859A850E944900D4
:1033C000DC01CB019E838D838D819E819A838983CD
:1033D00089819A810197F1F79A8389838D8D8F5F17
:1033E0008D8F8D8D803108F4FDCEE7960FB6F89461
:1033F000DEBF0FBECDBFCF91DF910895DF93CF9396
:10340000CDB7DEB7E7970FB6F894DEBF0FBECDBFDE
:10341000CE014E969FA78EA7E4E6F1E0F9ABE8ABAC
:10342000F8E0FAABE8A9F9A9008088A999A9019662
:1034300099AB88ABEEA5FFA500828EA59FA501964E
:103440009FA78EA79AA991509AABEAA9EE2351F7AC
:10345000CE0186969CAB8BABECE5F1E0FEABEDAB21
:10346000F8E0FFABEDA9FEA900808DA99EA9019609
:103470009EAB8DABEBA9FCA900828BA99CA9019600
:103480009CAB8BAB9FA991509FABEFA9EE2351F75B
:1034900080E18D8FFFC00E945D089D8D8D8D8150D4
:1034A0008D8F9E01225E3F4F80E0B901492F21E0C0
:1034B0000E94110880E090E0A0E2B2E4898F9A8F28
:1034C000AB8FBC8F698D7A8D8B8D9C8D20E030E029
:1034D0004AE755E40E941F02DC01CB018D8B9E8BD5
:1034E000AF8BB88F6D897E898F89988D20E030E011
:1034F00040E85FE30E94790388232CF481E090E0A8
:103500009C8B8B8B3FC06D897E898F89988D20E045
:103510003FEF4FE757E40E94190318164CF5698DE9
:103520007A8D8B8D9C8D20E030E040E251E40E944A
:103530001F02DC01CB01BC01CD010E944900DC016E
:10354000CB019C8B8B8B0FC080E991E09A8B898B90
:1035500089899A890197F1F79A8B898B8B899C8944
:1035600001979C8B8B8B8B899C89009769F714C082
:103570006D897E898F89988D0E944900DC01CB017D
:103580009C8B8B8B8B899C89988B8F878F85988957
:103590000197F1F7988B8F879E012A5D3F4F80E05E
:1035A000B9014D8D21E00E94110880E090E0A0E279
:1035B000B2E48B879C87AD87BE876B857C858D85C4
:1035C0009E8520E030E04AE755E40E941F02DC01BE
:1035D000CB018F839887A987BA876F817885898582
:1035E0009A8520E030E040E85FE30E947903882379
:1035F0002CF481E090E09E838D833FC06F817885BD
:1036000089859A8520E03FEF4FE757E40E94190330
:1036100018164CF56B857C858D859E8520E030E005
:1036200040E251E40E941F02DC01CB01BC01CD014C
:103630000E944900DC01CB019E838D830FC080E98D
:1036400091E09C838B838B819C810197F1F79C8314
:103650008B838D819E8101979E838D838D819E8139
:10366000009769F714C06F81788589859A850E94D3
:103670004900DC01CB019E838D838D819E819A83DD
:10368000898389819A810197F1F79A8389838D8D46
:1036900081508D8F8D8D813108F4FDCEE7960FB668
:1036A000F894DEBF0FBECDBFCF91DF910895DF93B9
:1036B000CF93CDB7DEB782E063E040E00E949C1C70
:1036C00082E064E041E00E949C1CCF91DF9108956C
:1036D000DF93CF93CDB7DEB782E064E040E00E9495
:1036E0009C1C82E063E041E00E949C1CCF91DF9132
:1036F0000895DF93CF93CDB7DEB782E063E040E07B
:103700000E949C1C82E064E040E00E949C1CCF91DF
:10371000DF910895DF93CF93CDB7DEB728970FB62B
:10372000F894DEBF0FBECDBF8A836B834C831982B2
:103730008B81883008F0F4C08C81882309F077C031
:103740008A81282F30E038872F838F8198858130B8
:10375000910559F12F813885223031052CF48F8164
:103760009885009769F060C02F8138852230310537
:1037700089F18F8198858330910509F440C054C048
:10378000AAE3B0E0EAE3F0E08081482F8B81282FA4
:1037900030E081E090E0022E02C0880F991F0A9469
:1037A000E2F7809584238C93BDC0A7E3B0E0E7E304
:1037B000F0E08081482F8B81282F30E081E090E07D
:1037C000022E02C0880F991F0A94E2F78095842385
:1037D0008C93A8C0A4E3B0E0E4E3F0E08081482F3C
:1037E0008B81282F30E081E090E0022E02C0880F0C
:1037F000991F0A94E2F7809584238C9393C0A1E3E8
:10380000B0E0E1E3F0E08081482F8B81282F30E0A9
:1038100081E090E0022E02C0880F991F0A94E2F71F
:10382000809584238C937EC081E089837BC08C81CA
:10383000813009F072C08A81282F30E03E832D83C9
:103840008D819E818130910549F12D813E8122300B
:1038500031052CF48D819E81009761F05BC02D8134
:103860003E812230310571F18D819E818330910539
:10387000E9F150C0AAE3B0E0EAE3F0E08081482F2C
:103880008B81282F30E081E090E0022E02C0880F6B
:10389000991F0A94E2F7842B8C9344C0A7E3B0E00D
:1038A000E7E3F0E08081482F8B81282F30E081E032
:1038B00090E0022E02C0880F991F0A94E2F7842B31
:1038C0008C9330C0A4E3B0E0E4E3F0E08081482FC3
:1038D0008B81282F30E081E090E0022E02C0880F1B
:1038E000991F0A94E2F7842B8C931CC0A1E3B0E0EB
:1038F000E1E3F0E08081482F8B81282F30E081E0E8
:1039000090E0022E02C0880F991F0A94E2F7842BE0
:103910008C9308C081E0898305C081E0898302C05F
:1039200081E08983898128960FB6F894DEBF0FBEA7
:10393000CDBFCF91DF910895DF93CF93CDB7DEB7A1
:1039400028970FB6F894DEBF0FBECDBF8A836B8376
:103950004C8319828C81882309F077C08A81282FB3
:1039600030E038872F838F8198858130910559F118
:103970002F813885223031052CF48F81988500976E
:1039800069F060C02F8138852230310589F18F813F
:1039900098858330910509F440C054C0ABE3B0E092
:1039A000EBE3F0E08081482F8B81282F30E081E02D
:1039B00090E0022E02C0880F991F0A94E2F78095CA
:1039C00084238C93BAC0A8E3B0E0E8E3F0E0808100
:1039D000482F8B81282F30E081E090E0022E02C03A
:1039E000880F991F0A94E2F7809584238C93A5C0D1
:1039F000A5E3B0E0E5E3F0E08081482F8B81282F3C
:103A000030E081E090E0022E02C0880F991F0A94F6
:103A1000E2F7809584238C9390C0A2E3B0E0E2E3C8
:103A2000F0E08081482F8B81282F30E081E090E00A
:103A3000022E02C0880F991F0A94E2F78095842312
:103A40008C937BC081E0898378C08C81813009F0C0
:103A500072C08A81282F30E03E832D838D819E8124
:103A60008130910549F12D813E81223031052CF4C0
:103A70008D819E81009761F05BC02D813E81223057
:103A8000310571F18D819E8183309105E9F150C03E
:103A9000ABE3B0E0EBE3F0E08081482F8B81282F8F
:103AA00030E081E090E0022E02C0880F991F0A9456
:103AB000E2F7842B8C9341C0A8E3B0E0E8E3F0E0A8
:103AC0008081482F8B81282F30E081E090E0022E0A
:103AD00002C0880F991F0A94E2F7842B8C932DC0A3
:103AE000A5E3B0E0E5E3F0E08081482F8B81282F4B
:103AF00030E081E090E0022E02C0880F991F0A9406
:103B0000E2F7842B8C9319C0A2E3B0E0E2E3F0E08B
:103B10008081482F8B81282F30E081E090E0022EB9
:103B200002C0880F991F0A94E2F7842B8C9305C07A
:103B300081E0898302C081E08983898128960FB65C
:103B4000F894DEBF0FBECDBFCF91DF910895DF9314
:103B5000CF93CDB7DEB729970FB6F894DEBF0FBE6F
:103B6000CDBF8B836C835E834D831A828D819E8152
:103B7000009709F472C019828B81282F30E03987B1
:103B80002887488559854130510541F188859985B7
:103B90008230910534F4288539852115310561F08D
:103BA00053C0488559854230510551F18885998522
:103BB00083309105B9F148C0E9E3F0E08081282F16
:103BC00030E08C81882F90E0A90102C0559547957F
:103BD0008A95E2F7CA018170898338C0E6E3F0E094
:103BE0008081282F30E08C81882F90E0A90102C0CD
:103BF000559547958A95E2F7CA018170898326C059
:103C0000E3E3F0E08081282F30E08C81882F90E082
:103C1000A90102C0559547958A95E2F7CA018170BE
:103C2000898314C0E0E3F0E08081282F30E08C81AC
:103C3000882F90E0A90102C0559547958A95E2F733
:103C4000CA018170898302C081E08A83ED81FE818F
:103C5000898180835A815F8304C082E08A838A815C
:103C60008F838F8129960FB6F894DEBF0FBECDBF2C
:103C7000CF91DF910895DF93CF9300D000D00F92C2
:103C8000CDB7DEB78A836B8319828A81282F30E013
:103C90003D832C838C819D8181309105D1F02C81D5
:103CA0003D81223031052CF48C819D81009761F09B
:103CB0001FC02C813D812230310581F08C819D8196
:103CC0008330910581F014C0EAE3F0E08B818083BA
:103CD00011C0E7E3F0E08B8180830CC0E4E3F0E007
:103CE0008B81808307C0E1E3F0E08B81808302C099
:103CF00081E0898389810F900F900F900F900F9032
:103D0000CF91DF910895DF93CF9300D000D00F9231
:103D1000CDB7DEB78A836B8319828A81282F30E082
:103D20003D832C838C819D8181309105D1F02C8144
:103D30003D81223031052CF48C819D81009761F00A
:103D40001FC02C813D812230310581F08C819D8105
:103D50008330910581F014C0EBE3F0E08B81808328
:103D600011C0E8E3F0E08B8180830CC0E5E3F0E074
:103D70008B81808307C0E2E3F0E08B81808302C007
:103D800081E0898389810F900F900F900F900F90A1
:103D9000CF91DF910895DF93CF9300D000D00F92A1
:103DA000CDB7DEB78A836B8319828B81883008F0A8
:103DB00072C08A81282F30E03D832C838C819D81C5
:103DC0008130910549F12C813D81223031052CF45F
:103DD0008C819D81009761F05BC02C813D812230F8
:103DE000310571F18C819D8183309105E9F150C0DD
:103DF000ABE3B0E0EBE3F0E08081482F8B81282F2C
:103E000030E081E090E0022E02C0880F991F0A94F2
:103E1000E2F784278C9341C0A8E3B0E0E8E3F0E048
:103E20008081482F8B81282F30E081E090E0022EA6
:103E300002C0880F991F0A94E2F784278C932DC043
:103E4000A5E3B0E0E5E3F0E08081482F8B81282FE7
:103E500030E081E090E0022E02C0880F991F0A94A2
:103E6000E2F784278C9319C0A2E3B0E0E2E3F0E02C
:103E70008081482F8B81282F30E081E090E0022E56
:103E800002C0880F991F0A94E2F784278C9305C01B
:103E900081E0898302C081E0898389810F900F903E
:103EA0000F900F900F90CF91DF910895DF93CF93F4
:103EB000CDB7DEB7A5E5B0E0E5E5F0E08081816053
:103EC0008C93A5E5B0E0E5E5F0E0808182608C931D
:103ED000A5E5B0E0E5E5F0E080818B7F8C93A5E57A
:103EE000B0E0E5E5F0E0808188608C93A4E5B0E087
:103EF000E4E5F0E080818F7B8C93ABE5B0E0EBE50F
:103F0000F0E0808180648C93ABE5B0E0EBE5F0E01D
:103F100080818F778C93ABE5B0E0EBE5F0E08081BA
:103F200080628C93CF91DF910895DF93CF93CDB7CB
:103F3000DEB729970FB6F894DEBF0FBECDBF8A83D8
:103F40006B8319828A81882309F05EC08B81282FB8
:103F500030E039872887888599858130910521F15E
:103F600028853985223031052CF48885998500977C
:103F700061F047C0288539852230310521F18885D7
:103F800099858330910571F13CC0A5E5B0E0E5E588
:103F9000F0E080818E7F8C93A5E5B0E0E5E5F0E070
:103FA00080818D7F8C93BAC0A5E5B0E0E5E5F0E0B7
:103FB000808181608C93A5E5B0E0E5E5F0E080814B
:103FC0008D7F8C93ABC0A5E5B0E0E5E5F0E08081A6
:103FD0008E7F8C93A5E5B0E0E5E5F0E0808182601E
:103FE0008C939CC0A5E5B0E0E5E5F0E080818160C0
:103FF0008C93A5E5B0E0E5E5F0E0808182608C93EC
:104000008DC081E089838AC08A81813009F05EC0D9
:104010008B81282F30E03F832E838E819F818130DA
:10402000910521F12E813F81223031052CF48E81C2
:104030009F81009761F047C02E813F81223031057A
:1040400021F18E819F818330910571F13CC0A5E5FE
:10405000B0E0E5E5F0E080818B7F8C93A5E5B0E0F2
:10406000E5E5F0E08081877F8C9358C0A5E5B0E05E
:10407000E5E5F0E0808184608C93A5E5B0E0E5E5BE
:10408000F0E08081877F8C9349C0A5E5B0E0E5E54D
:10409000F0E080818B7F8C93A5E5B0E0E5E5F0E072
:1040A000808188608C933AC0A5E5B0E0E5E5F0E05A
:1040B000808184608C93A5E5B0E0E5E5F0E0808147
:1040C00088608C932BC081E0898328C08A818230EC
:1040D00019F58B81282F30E03D832C838C819D81C5
:1040E0008230910531F02C813D812330310549F03A
:1040F00010C0A4E5B0E0E4E5F0E080818F7B8C9314
:104100000DC0A4E5B0E0E4E5F0E0808180648C932C
:1041100005C081E0898302C081E089838981299675
:104120000FB6F894DEBF0FBECDBFCF91DF910895DB
:10413000DF93CF9300D000D0CDB7DEB78A8319824A
:104140008A81282F30E03C832B838B819C818130B6
:10415000910589F02B813C8122303105A1F08B81C2
:104160009C810097C1F4ABE5B0E0EBE5F0E0808125
:1041700080648C9312C0ABE5B0E0EBE5F0E08081A9
:1041800080688C930AC0ABE5B0E0EBE5F0E080819D
:1041900080628C9302C081E0898389810F900F90A7
:1041A0000F900F90CF91DF910895DF93CF9300D0C0
:1041B00000D0CDB7DEB78A8319828A81282F30E0FC
:1041C0003C832B838B819C818130910589F02B81ED
:1041D0003C8122303105A1F08B819C810097C1F494
:1041E000ABE5B0E0EBE5F0E080818F7B8C9312C013
:1041F000ABE5B0E0EBE5F0E080818F778C930AC00F
:10420000ABE5B0E0EBE5F0E080818F7D8C9302C000
:1042100081E0898389810F900F900F900F90CF914B
:10422000DF910895DF93CF9300D000D0CDB7DEB7F4
:104230008A837C836B8319828B819C81009769F0D0
:104240008A81882F90E0880F991FFC01E458FE4F67
:104250008B819C819183808302C082E089838981E4
:104260000F900F900F900F90CF91DF9108951F92B4
:104270000F920FB60F9211242F933F934F935F939A
:104280006F937F938F939F93AF93BF93EF93FF931E
:10429000DF93CF93CDB7DEB780917C0190917D0104
:1042A000009729F0E0917C01F0917D010995CF9173
:1042B000DF91FF91EF91BF91AF919F918F917F918E
:1042C0006F915F914F913F912F910F900FBE0F9083
:1042D0001F9018951F920F920FB60F9211242F93D3
:1042E0003F934F935F936F937F938F939F93AF937E
:1042F000BF93EF93FF93DF93CF93CDB7DEB780915A
:104300007E0190917F01009729F0E0917E01F0916C
:104310007F010995CF91DF91FF91EF91BF91AF910F
:104320009F918F917F916F915F914F913F912F91CD
:104330000F900FBE0F901F9018951F920F920FB6FF
:104340000F9211242F933F934F935F936F937F931B
:104350008F939F93AF93BF93EF93FF93DF93CF938D
:10436000CDB7DEB78091800190918101009729F04F
:10437000E0918001F09181010995CF91DF91FF914A
:10438000EF91BF91AF919F918F917F916F915F91CD
:104390004F913F912F910F900FBE0F901F90189546
:1043A000DF93CF93CDB7DEB77894CF91DF910895A7
:1043B000DF93CF93CDB7DEB7F894CF91DF91089517
:1043C000DF93CF93CDB7DEB7A2970FB6F894DEBFD9
:1043D0000FBECDBF8FEF898382E08D8383E08E8314
:1043E00084E08F8385E0888784E0898785E08A87F9
:1043F00086E08B8787E08C87CE010D969F8F8E8F0E
:10440000ECE6F1E0F9A3E8A3F0E1FAA3E8A1F9A151
:10441000008088A199A1019699A388A3EE8DFF8DB4
:1044200000828E8D9F8D01969F8F8E8F9AA19150C5
:104430009AA3EAA1EE2351F71B8268C08B81282F33
:1044400030E0CE010596FC01E20FF31F908183E07E
:10445000692F40E00E949C1C1A8243C08A81282F49
:1044600030E0CE010996FC01E20FF31F90819E011E
:104470002C5F3F4F81E0692FA9010E94A71D8C810D
:10448000882361F58A81282F30E08B81482F50E006
:10449000220F331F220F331FCE010196820F931F6D
:1044A000840F951FFC013C968081898311C08A810D
:1044B000282F30E0CE010996FC01E20FF31F908116
:1044C0009E012C5F3F4F81E0692FA9010E94A71D2B
:1044D0008C81882361F3F981FD8F1EC08A818F5FF3
:1044E0008A838A81843008F4B9CF8B81282F30E009
:1044F000CE010596FC01E20FF31F908183E0692F46
:1045000041E00E949C1C8B818F5F8B838B81843068
:1045100008F494CF89818D8F8D8DA2960FB6F89473
:10452000DEBF0FBECDBFCF91DF910895DF93CF9354
:10453000CDB7DEB7EAE3F0E08FEF8083E7E3F0E0AA
:104540001082E4E3F0E08FEF8083E1E3F0E08CE3BE
:104550008083EBE3F0E01082E8E3F0E080EF80831B
:10456000E5E3F0E01082E2E3F0E08CE18083CF91BC
:10457000DF910895DF93CF93CDB7DEB781E08093CD
:104580008201CF91DF9108950F931F93DF93CF9313
:10459000CDB7DEB7CA55D0400FB6F894DEBF0FBE18
:1045A000CDBFFE01E65AFF4F8FEF8083FE01E85A30
:1045B000FF4F11821082FE01E95AFF4F81E0808394
:1045C0000E9496220E94561F0E9498062AEB32E211
:1045D00082E0B9010E9412210E94D02182E00E9453
:1045E00098205AC40E94A6180E945D0882E00E948A
:1045F000D520FE01EA5AFF4F83E08083FE01EB5A8B
:10460000FF4F108280E060E00E94F10787EA90E0AF
:104610000E9432070E94E021FE01E65AFF4F80838C
:10462000FE01E65AFF4F80818F3FA1F3DE01AA5AB7
:10463000BF4FFE01EA5AFF4F80818F5F8C93FE01CE
:10464000EA5AFF4F808160E00E94F107FE01E65ABE
:10465000FF4F8081882F90E0A0E0B0E0BC01CD0149
:104660000E946507FE01E65AFF4F80818D3309F0F5
:1046700075C3FE01EA5AFF4F85E080830E945D0802
:1046800080E060E00E94F1078BEA90E00E94320730
:104690005EC30E94E021FE01E65AFF4F8083FE01C7
:1046A000E65AFF4F80818F3FA1F3DE01AA5ABF4F28
:1046B000FE01EA5AFF4F80818F5F8C93FE01EA5A18
:1046C000FF4F808160E00E94F107FE01E65AFF4F34
:1046D0008081882F90E0A0E0B0E0BC01CD010E9475
:1046E0006507FE01EF5AFF4F80E090E0A0EAB2E4D8
:1046F00080839183A283B3838E01035B1F4FFE01EE
:10470000EF5AFF4F608171818281938120E030E018
:104710004AE755E40E941F02DC01CB01F8018083C7
:104720009183A283B383FE01E35BFF4F60817181BC
:104730008281938120E030E040E85FE30E947903CA
:10474000882344F4FE01E55BFF4F81E090E0918314
:10475000808364C0FE01E35BFF4F608171818281D1
:10476000938120E03FEF4FE757E40E9419031816AA
:104770000CF043C0FE01EF5AFF4F608171818281CE
:10478000938120E030E040E251E40E941F02DC010E
:10479000CB018E01055B1F4FBC01CD010E9449007A
:1047A000DC01CB01F801918380831FC0FE01E75B30
:1047B000FF4F80E991E091838083FE01E75BFF4F2B
:1047C000808191810197F1F7FE01E75BFF4F9183B3
:1047D0008083DE01A55BBF4FFE01E55BFF4F80815B
:1047E0009181019711969C938E93FE01E55BFF4F9B
:1047F000808191810097D1F627C08E01055B1F4F04
:10480000FE01E35BFF4F60817181828193810E9491
:104810004900DC01CB01F80191838083DE01A95BB3
:10482000BF4FFE01E55BFF4F808191818D939C938B
:10483000FE01E95BFF4F808191810197F1F7FE0155
:10484000E95BFF4F91838083FE01EA5AFF4F80812D
:1048500060E00E94F10781EB90E00E943207FE01C8
:10486000E65AFF4F80818D3309F04FC2FE01E85AAE
:10487000FF4F80819181F1E08C349F0709F08DC159
:104880001092820182E00E9498200E945D0885E0DB
:1048900060E00E94F10783EB90E00E94320782E023
:1048A00061E040E00E949C1C82E060E041E00E94E8
:1048B0009C1C0E94571BFE01ED5BFF4F80E090E0C7
:1048C000AAE7B4E480839183A283B3838E01015C61
:1048D0001F4FFE01ED5BFF4F6081718182819381EB
:1048E00020E030E04AE755E40E941F02DC01CB01E2
:1048F000F80180839183A283B383FE01FF966081D8
:1049000071818281938120E030E040E85FE30E9482
:10491000790388232CF481E090E09EAF8DAF46C0F0
:10492000FE01FF96608171818281938120E03FEFDB
:104930004FE757E40E941903181664F5FE01ED5B7A
:10494000FF4F608171818281938120E030E040E2FD
:1049500051E40E941F02DC01CB01BC01CD010E9489
:104960004900DC01CB019EAF8DAF0FC080E991E023
:104970009CAF8BAF8BAD9CAD0197F1F79CAF8BAF2C
:104980008DAD9EAD01979EAF8DAF8DAD9EAD009765
:1049900069F716C0FE01FF96608171818281938163
:1049A0000E944900DC01CB019EAF8DAF8DAD9EAD65
:1049B0009AAF89AF89AD9AAD0197F1F79AAF89AFF8
:1049C0000E94791B80E090E0A8ECB3E48DAB9EAB35
:1049D000AFABB8AF6DA97EA98FA998AD20E030E04C
:1049E0004AE755E40E941F02DC01CB0189AB9AAB78
:1049F000ABABBCAB69A97AA98BA99CA920E030E03C
:104A000040E85FE30E94790388232CF481E090E082
:104A100098AB8FA73FC069A97AA98BA99CA920E070
:104A20003FEF4FE757E40E94190318164CF56DA9A4
:104A30007EA98FA998AD20E030E040E251E40E94C9
:104A40001F02DC01CB01BC01CD010E944900DC0149
:104A5000CB0198AB8FA70FC080E991E09EA78DA7EF
:104A60008DA59EA50197F1F79EA78DA78FA598A963
:104A7000019798AB8FA78FA598A9009769F714C0E5
:104A800069A97AA98BA99CA90E944900DC01CB01E4
:104A900098AB8FA78FA598A99CA78BA78BA59CA542
:104AA0000197F1F79CA78BA70E94681B80E090E01C
:104AB000AAE7B4E48FA398A7A9A7BAA76FA178A57E
:104AC00089A59AA520E030E04AE755E40E941F023C
:104AD000DC01CB018BA39CA3ADA3BEA36BA17CA1E6
:104AE0008DA19EA120E030E040E85FE30E947903C1
:104AF00088232CF481E090E09AA389A33FC06BA1A6
:104B00007CA18DA19EA120E03FEF4FE757E40E94DA
:104B1000190318164CF56FA178A589A59AA520E070
:104B200030E040E251E40E941F02DC01CB01BC01F5
:104B3000CD010E944900DC01CB019AA389A30FC0DB
:104B400080E991E098A38F8F8F8D98A10197F1F75D
:104B500098A38F8F89A19AA101979AA389A389A16C
:104B60009AA1009769F714C06BA17CA18DA19EA1A9
:104B70000E944900DC01CB019AA389A389A19AA1D3
:104B80009E8F8D8F8D8D9E8D0197F1F79E8F8D8FCE
:104B9000FE01E95AFF4F1082E1C0FE01EA5AFF4FC1
:104BA00085E08083FE01E85AFF4F1182108282E087
:104BB00061E041E00E949C1C0E945D08FE01EB5AEE
:104BC000FF4F8081823031F410928201FE01E95A58
:104BD000FF4F108284E060E00E94F1078BEB90E0D1
:104BE0000E94320780E090E0A6E9B3E4898F9A8FB3
:104BF000AB8FBC8F698D7A8D8B8D9C8D20E030E0E2
:104C00004AE755E40E941F02DC01CB018D8B9E8B8D
:104C1000AF8BB88F6D897E898F89988D20E030E0C9
:104C200040E85FE30E94790388232CF481E090E060
:104C30009C8B8B8B3FC06D897E898F89988D20E0FE
:104C40003FEF4FE757E40E94190318164CF5698DA2
:104C50007A8D8B8D9C8D20E030E040E251E40E9403
:104C60001F02DC01CB01BC01CD010E944900DC0127
:104C7000CB019C8B8B8B0FC080E991E09A8B898B49
:104C800089899A890197F1F79A8B898B8B899C89FD
:104C900001979C8B8B8B8B899C89009769F714C03B
:104CA0006D897E898F89988D0E944900DC01CB0136
:104CB0009C8B8B8B8B899C89988B8F878F85988910
:104CC0000197F1F7988B8F870E945D0880E060E084
:104CD0000E94F1078BEA90E00E943207DE01AB5A96
:104CE000BF4FFE01EB5AFF4F80818F5F8C93FE0117
:104CF000EB5AFF4F8081823009F0CBCC10928201B9
:104D0000FE01E95AFF4F1082C4CCFE01E65AFF4F64
:104D100080818A30E0F4FE01E85AFF4F8081918162
:104D20009C01220F331FC901880F991F880F991FFB
:104D3000280F391FFE01E65AFF4F8081882F90E02F
:104D4000FE01E85AFF4F820F931F91838083FE017B
:104D5000EB5AFF4F8081833008F49BCCFE01E95A67
:104D6000FF4F8081813009F455CC809182018823E6
:104D700009F092C00E945D080E94791B82E060E009
:104D800040E00E949C1C82E061E040E00E949C1C8C
:104D900085E060E00E94F10785EC90E00E94320718
:104DA00080E090E0AAE7B4E48B879C87AD87BE875C
:104DB0006B857C858D859E8520E030E04AE755E453
:104DC0000E941F02DC01CB018F839887A987BA87D5
:104DD0006F81788589859A8520E030E040E85FE33F
:104DE0000E94790388232CF481E090E09E838D83D8
:104DF0003FC06F81788589859A8520E03FEF4FE736
:104E000057E40E94190318164CF56B857C858D8537
:104E10009E8520E030E040E251E40E941F02DC0168
:104E2000CB01BC01CD010E944900DC01CB019E8376
:104E30008D830FC080E991E09C838B838B819C8163
:104E40000197F1F79C838B838D819E8101979E83CF
:104E50008D838D819E81009769F714C06F8178855D
:104E600089859A850E944900DC01CB019E838D8350
:104E70008D819E819A83898389819A810197F1F737
:104E80009A8389830E94FE190E945D08FE01E95AF7
:104E9000FF4F81E08083A2CB80918201813009F4B1
:104EA000A1CB9CCBA1E21A2EAA1BBB1BFD010DC0FE
:104EB000AA1FBB1FEE1FFF1FA217B307E407F507CA
:104EC00020F0A21BB30BE40BF50B661F771F881FA6
:104ED000991F1A9469F760957095809590959B013C
:104EE000AC01BD01CF01089597FB092E05260ED018
:104EF00057FD04D0D7DF0AD0001C38F450954095F8
:104F0000309521953F4F4F4F5F4F0895F6F790959D
:104F10008095709561957F4F8F4F9F4F08952F9289
:104F20003F924F925F926F927F928F929F92AF9239
:104F3000BF92CF92DF92EF92FF920F931F93CF9386
:104F4000DF93CDB7DEB7CA1BDB0B0FB6F894DEBF1D
:104F50000FBECDBF09942A88398848885F846E8443
:104F60007D848C849B84AA84B984C884DF80EE808D
:104F7000FD800C811B81AA81B981CE0FD11D0FB696
:104F8000F894DEBF0FBECDBFED010895F894FFCFBA
:104F90004849204920414D2048414D4F4B534841FD
:104FA00000492043414E2052554E00492043414E76
:104FB0002044414E434500204920706C61792046D1
:104FC0006F6F7462616C6C0020444F4E2754204B0D
:104FD000494C4C204D450049443A00504153533A06
:104FE000002A00436F727265637400547279204125
:104FF0006761696E00436C6F7365640000000000B8
:10500000000000000E0E0E00000000001F1F1F1FFA
:10501000000000001F1F1F1F1F1F1F000E0E040592
:10502000050A08000E0E0404040909000E0E04040B
:10503000040A0A000E1F1504040A0A000E1F1504B4
:10504000041111000E0E1515040A0A0000000000DC
:10505000011F1F000A000F090F01000000000101DD
:105060001F000A0000000005011F000000000705E6
:10507000071F000007041F04040404000E0E0404AC
:10508000040909000E0E0404040A0A000E0E0404AA
:10509000040909000E0E0404040A0A000708092F77
:0C50A000040506780102032D43003D2B9F
:00000001FF
